{
  "contractName": "ERC721",
  "abi": [
    {
      "inputs": [
        {
          "internalType": "string",
          "name": "name",
          "type": "string"
        },
        {
          "internalType": "string",
          "name": "symbol",
          "type": "string"
        }
      ],
      "stateMutability": "nonpayable",
      "type": "constructor"
    },
    {
      "anonymous": false,
      "inputs": [
        {
          "indexed": true,
          "internalType": "address",
          "name": "_owner",
          "type": "address"
        },
        {
          "indexed": true,
          "internalType": "address",
          "name": "_approved",
          "type": "address"
        },
        {
          "indexed": true,
          "internalType": "uint256",
          "name": "_tokenId",
          "type": "uint256"
        }
      ],
      "name": "Approval",
      "type": "event"
    },
    {
      "anonymous": false,
      "inputs": [
        {
          "indexed": true,
          "internalType": "address",
          "name": "_owner",
          "type": "address"
        },
        {
          "indexed": true,
          "internalType": "address",
          "name": "_operator",
          "type": "address"
        },
        {
          "indexed": false,
          "internalType": "bool",
          "name": "_approved",
          "type": "bool"
        }
      ],
      "name": "ApprovalForAll",
      "type": "event"
    },
    {
      "anonymous": false,
      "inputs": [
        {
          "indexed": true,
          "internalType": "address",
          "name": "_from",
          "type": "address"
        },
        {
          "indexed": true,
          "internalType": "address",
          "name": "_to",
          "type": "address"
        },
        {
          "indexed": true,
          "internalType": "uint256",
          "name": "_tokenId",
          "type": "uint256"
        }
      ],
      "name": "Transfer",
      "type": "event"
    },
    {
      "inputs": [],
      "name": "name",
      "outputs": [
        {
          "internalType": "string",
          "name": "",
          "type": "string"
        }
      ],
      "stateMutability": "view",
      "type": "function",
      "constant": true
    },
    {
      "inputs": [],
      "name": "symbol",
      "outputs": [
        {
          "internalType": "string",
          "name": "",
          "type": "string"
        }
      ],
      "stateMutability": "view",
      "type": "function",
      "constant": true
    },
    {
      "inputs": [],
      "name": "totalSupply",
      "outputs": [
        {
          "internalType": "uint256",
          "name": "",
          "type": "uint256"
        }
      ],
      "stateMutability": "view",
      "type": "function",
      "constant": true
    },
    {
      "inputs": [
        {
          "internalType": "uint256",
          "name": "_index",
          "type": "uint256"
        }
      ],
      "name": "tokenByIndex",
      "outputs": [
        {
          "internalType": "uint256",
          "name": "",
          "type": "uint256"
        }
      ],
      "stateMutability": "view",
      "type": "function",
      "constant": true
    },
    {
      "inputs": [
        {
          "internalType": "address",
          "name": "_owner",
          "type": "address"
        }
      ],
      "name": "balanceOf",
      "outputs": [
        {
          "internalType": "uint256",
          "name": "",
          "type": "uint256"
        }
      ],
      "stateMutability": "view",
      "type": "function",
      "constant": true
    },
    {
      "inputs": [
        {
          "internalType": "uint256",
          "name": "_tokenId",
          "type": "uint256"
        }
      ],
      "name": "ownerOf",
      "outputs": [
        {
          "internalType": "address",
          "name": "",
          "type": "address"
        }
      ],
      "stateMutability": "view",
      "type": "function",
      "constant": true
    },
    {
      "inputs": [
        {
          "internalType": "address",
          "name": "_from",
          "type": "address"
        },
        {
          "internalType": "address",
          "name": "_to",
          "type": "address"
        },
        {
          "internalType": "uint256",
          "name": "_tokenId",
          "type": "uint256"
        }
      ],
      "name": "transferFrom",
      "outputs": [],
      "stateMutability": "payable",
      "type": "function",
      "payable": true
    },
    {
      "inputs": [
        {
          "internalType": "address",
          "name": "_approved",
          "type": "address"
        },
        {
          "internalType": "uint256",
          "name": "_tokenId",
          "type": "uint256"
        }
      ],
      "name": "approve",
      "outputs": [],
      "stateMutability": "payable",
      "type": "function",
      "payable": true
    },
    {
      "inputs": [
        {
          "internalType": "address",
          "name": "_operator",
          "type": "address"
        },
        {
          "internalType": "bool",
          "name": "_approved",
          "type": "bool"
        }
      ],
      "name": "setApprovalForAll",
      "outputs": [],
      "stateMutability": "nonpayable",
      "type": "function"
    },
    {
      "inputs": [
        {
          "internalType": "uint256",
          "name": "_tokenId",
          "type": "uint256"
        }
      ],
      "name": "getApproved",
      "outputs": [
        {
          "internalType": "address",
          "name": "",
          "type": "address"
        }
      ],
      "stateMutability": "view",
      "type": "function",
      "constant": true
    },
    {
      "inputs": [
        {
          "internalType": "address",
          "name": "_owner",
          "type": "address"
        },
        {
          "internalType": "address",
          "name": "_operator",
          "type": "address"
        }
      ],
      "name": "isApprovedForAll",
      "outputs": [
        {
          "internalType": "bool",
          "name": "",
          "type": "bool"
        }
      ],
      "stateMutability": "view",
      "type": "function",
      "constant": true
    },
    {
      "inputs": [
        {
          "internalType": "address",
          "name": "_to",
          "type": "address"
        }
      ],
      "name": "mint",
      "outputs": [
        {
          "internalType": "uint256",
          "name": "",
          "type": "uint256"
        }
      ],
      "stateMutability": "nonpayable",
      "type": "function"
    }
  ],
  "bytecode": "0x60806040523480156200001157600080fd5b5060405162001e8538038062001e85833981810160405260408110156200003757600080fd5b81019080805160405193929190846401000000008211156200005857600080fd5b838201915060208201858111156200006f57600080fd5b82518660018202830111640100000000821117156200008d57600080fd5b8083526020830192505050908051906020019080838360005b83811015620000c3578082015181840152602081019050620000a6565b50505050905090810190601f168015620000f15780820380516001836020036101000a031916815260200191505b50604052602001805160405193929190846401000000008211156200011557600080fd5b838201915060208201858111156200012c57600080fd5b82518660018202830111640100000000821117156200014a57600080fd5b8083526020830192505050908051906020019080838360005b838110156200018057808201518184015260208101905062000163565b50505050905090810190601f168015620001ae5780820380516001836020036101000a031916815260200191505b50604052505050336000806101000a81548173ffffffffffffffffffffffffffffffffffffffff021916908373ffffffffffffffffffffffffffffffffffffffff16021790555081600190805190602001906200020d92919062000237565b5080600290805190602001906200022692919062000237565b5060006003819055505050620002e6565b828054600181600116156101000203166002900490600052602060002090601f016020900481019282601f106200027a57805160ff1916838001178555620002ab565b82800160010185558215620002ab579182015b82811115620002aa5782518255916020019190600101906200028d565b5b509050620002ba9190620002be565b5090565b620002e391905b80821115620002df576000816000905550600101620002c5565b5090565b90565b611b8f80620002f66000396000f3fe6080604052600436106100a75760003560e01c80636352211e116100645780636352211e146102ed5780636a6278421461036857806370a08231146103cd57806395d89b4114610432578063a22cb465146104c2578063e985e9c51461051f576100a7565b806306fdde03146100ac578063081812fc1461013c578063095ea7b3146101b757806318160ddd1461020557806323b872dd146102305780634f6ccce71461029e575b600080fd5b3480156100b857600080fd5b506100c16105a8565b6040518080602001828103825283818151815260200191508051906020019080838360005b838110156101015780820151818401526020810190506100e6565b50505050905090810190601f16801561012e5780820380516001836020036101000a031916815260200191505b509250505060405180910390f35b34801561014857600080fd5b506101756004803603602081101561015f57600080fd5b810190808035906020019092919050505061064a565b604051808273ffffffffffffffffffffffffffffffffffffffff1673ffffffffffffffffffffffffffffffffffffffff16815260200191505060405180910390f35b610203600480360360408110156101cd57600080fd5b81019080803573ffffffffffffffffffffffffffffffffffffffff1690602001909291908035906020019092919050505061075f565b005b34801561021157600080fd5b5061021a610a71565b6040518082815260200191505060405180910390f35b61029c6004803603606081101561024657600080fd5b81019080803573ffffffffffffffffffffffffffffffffffffffff169060200190929190803573ffffffffffffffffffffffffffffffffffffffff16906020019092919080359060200190929190505050610a7e565b005b3480156102aa57600080fd5b506102d7600480360360208110156102c157600080fd5b8101908080359060200190929190505050610d1f565b6040518082815260200191505060405180910390f35b3480156102f957600080fd5b506103266004803603602081101561031057600080fd5b8101908080359060200190929190505050610dba565b604051808273ffffffffffffffffffffffffffffffffffffffff1673ffffffffffffffffffffffffffffffffffffffff16815260200191505060405180910390f35b34801561037457600080fd5b506103b76004803603602081101561038b57600080fd5b81019080803573ffffffffffffffffffffffffffffffffffffffff169060200190929190505050610e9f565b6040518082815260200191505060405180910390f35b3480156103d957600080fd5b5061041c600480360360208110156103f057600080fd5b81019080803573ffffffffffffffffffffffffffffffffffffffff169060200190929190505050610fcf565b6040518082815260200191505060405180910390f35b34801561043e57600080fd5b50610447611018565b6040518080602001828103825283818151815260200191508051906020019080838360005b8381101561048757808201518184015260208101905061046c565b50505050905090810190601f1680156104b45780820380516001836020036101000a031916815260200191505b509250505060405180910390f35b3480156104ce57600080fd5b5061051d600480360360408110156104e557600080fd5b81019080803573ffffffffffffffffffffffffffffffffffffffff1690602001909291908035151590602001909291905050506110ba565b005b34801561052b57600080fd5b5061058e6004803603604081101561054257600080fd5b81019080803573ffffffffffffffffffffffffffffffffffffffff169060200190929190803573ffffffffffffffffffffffffffffffffffffffff1690602001909291905050506111bb565b604051808215151515815260200191505060405180910390f35b606060018054600181600116156101000203166002900480601f0160208091040260200160405190810160405280929190818152602001828054600181600116156101000203166002900480156106405780601f1061061557610100808354040283529160200191610640565b820191906000526020600020905b81548152906001019060200180831161062357829003601f168201915b5050505050905090565b600081600073ffffffffffffffffffffffffffffffffffffffff166005600083815260200190815260200160002060009054906101000a900473ffffffffffffffffffffffffffffffffffffffff1673ffffffffffffffffffffffffffffffffffffffff161415610723576040517f08c379a00000000000000000000000000000000000000000000000000000000081526004018080602001828103825260178152602001807f4552433732313a20746f6b656e206e6f742076616c696400000000000000000081525060200191505060405180910390fd5b6007600084815260200190815260200160002060009054906101000a900473ffffffffffffffffffffffffffffffffffffffff16915050919050565b8060006005600083815260200190815260200160002060009054906101000a900473ffffffffffffffffffffffffffffffffffffffff1690503373ffffffffffffffffffffffffffffffffffffffff168173ffffffffffffffffffffffffffffffffffffffff1614806108585750600860008273ffffffffffffffffffffffffffffffffffffffff1673ffffffffffffffffffffffffffffffffffffffff16815260200190815260200160002060003373ffffffffffffffffffffffffffffffffffffffff1673ffffffffffffffffffffffffffffffffffffffff16815260200190815260200160002060009054906101000a900460ff165b6108ca576040517f08c379a000000000000000000000000000000000000000000000000000000000815260040180806020018281038252601d8152602001807f4552433732313a206e6f74206f776e6572206f72206f70657261746f7200000081525060200191505060405180910390fd5b82600073ffffffffffffffffffffffffffffffffffffffff166005600083815260200190815260200160002060009054906101000a900473ffffffffffffffffffffffffffffffffffffffff1673ffffffffffffffffffffffffffffffffffffffff1614156109a1576040517f08c379a00000000000000000000000000000000000000000000000000000000081526004018080602001828103825260178152602001807f4552433732313a20746f6b656e206e6f742076616c696400000000000000000081525060200191505060405180910390fd5b60006005600086815260200190815260200160002060009054906101000a900473ffffffffffffffffffffffffffffffffffffffff1690508073ffffffffffffffffffffffffffffffffffffffff168673ffffffffffffffffffffffffffffffffffffffff161415610a5e576040517f08c379a0000000000000000000000000000000000000000000000000000000008152600401808060200182810382526021815260200180611b126021913960400191505060405180910390fd5b610a6981878761124f565b505050505050565b6000600480549050905090565b8060006005600083815260200190815260200160002060009054906101000a900473ffffffffffffffffffffffffffffffffffffffff1690503373ffffffffffffffffffffffffffffffffffffffff168173ffffffffffffffffffffffffffffffffffffffff161480610b4f57503373ffffffffffffffffffffffffffffffffffffffff166007600084815260200190815260200160002060009054906101000a900473ffffffffffffffffffffffffffffffffffffffff1673ffffffffffffffffffffffffffffffffffffffff16145b80610be05750600860008273ffffffffffffffffffffffffffffffffffffffff1673ffffffffffffffffffffffffffffffffffffffff16815260200190815260200160002060003373ffffffffffffffffffffffffffffffffffffffff1673ffffffffffffffffffffffffffffffffffffffff16815260200190815260200160002060009054906101000a900460ff165b610c35576040517f08c379a0000000000000000000000000000000000000000000000000000000008152600401808060200182810382526027815260200180611b336027913960400191505060405180910390fd5b82600073ffffffffffffffffffffffffffffffffffffffff166005600083815260200190815260200160002060009054906101000a900473ffffffffffffffffffffffffffffffffffffffff1673ffffffffffffffffffffffffffffffffffffffff161415610d0c576040517f08c379a00000000000000000000000000000000000000000000000000000000081526004018080602001828103825260178152602001807f4552433732313a20746f6b656e206e6f742076616c696400000000000000000081525060200191505060405180910390fd5b610d17868686611301565b505050505050565b60006004805490508210610d9b576040517f08c379a00000000000000000000000000000000000000000000000000000000081526004018080602001828103825260158152602001807f4552433732313a20696e76616c696420696e646578000000000000000000000081525060200191505060405180910390fd5b60048281548110610da857fe5b90600052602060002001549050919050565b6000806005600084815260200190815260200160002060009054906101000a900473ffffffffffffffffffffffffffffffffffffffff169050600073ffffffffffffffffffffffffffffffffffffffff168173ffffffffffffffffffffffffffffffffffffffff161415610e96576040517f08c379a000000000000000000000000000000000000000000000000000000000815260040180806020018281038252601c8152602001807f4552433732313a20696e76616c69642045524337323120746f6b656e0000000081525060200191505060405180910390fd5b80915050919050565b60008073ffffffffffffffffffffffffffffffffffffffff168273ffffffffffffffffffffffffffffffffffffffff161415610f43576040517f08c379a00000000000000000000000000000000000000000000000000000000081526004018080602001828103825260178152602001807f4552433732313a20696e76616c6964206164647265737300000000000000000081525060200191505060405180910390fd5b6000610f4d611568565b9050610f5983826115d2565b600360008154809291906001019190505550808373ffffffffffffffffffffffffffffffffffffffff163373ffffffffffffffffffffffffffffffffffffffff167fddf252ad1be2c89b69c2b068fc378daa952ba7f163c4a11628f55a4df523b3ef60405160405180910390a480915050919050565b6000600660008373ffffffffffffffffffffffffffffffffffffffff1673ffffffffffffffffffffffffffffffffffffffff168152602001908152602001600020549050919050565b606060028054600181600116156101000203166002900480601f0160208091040260200160405190810160405280929190818152602001828054600181600116156101000203166002900480156110b05780601f10611085576101008083540402835291602001916110b0565b820191906000526020600020905b81548152906001019060200180831161109357829003601f168201915b5050505050905090565b80600860003373ffffffffffffffffffffffffffffffffffffffff1673ffffffffffffffffffffffffffffffffffffffff16815260200190815260200160002060008473ffffffffffffffffffffffffffffffffffffffff1673ffffffffffffffffffffffffffffffffffffffff16815260200190815260200160002060006101000a81548160ff0219169083151502179055508173ffffffffffffffffffffffffffffffffffffffff163373ffffffffffffffffffffffffffffffffffffffff167f17307eab39ab6107e8899845ad3d59bd9653f200f220920489ca2b5937696c3183604051808215151515815260200191505060405180910390a35050565b6000600860008473ffffffffffffffffffffffffffffffffffffffff1673ffffffffffffffffffffffffffffffffffffffff16815260200190815260200160002060008373ffffffffffffffffffffffffffffffffffffffff1673ffffffffffffffffffffffffffffffffffffffff16815260200190815260200160002060009054906101000a900460ff16905092915050565b816007600083815260200190815260200160002060006101000a81548173ffffffffffffffffffffffffffffffffffffffff021916908373ffffffffffffffffffffffffffffffffffffffff160217905550808273ffffffffffffffffffffffffffffffffffffffff168473ffffffffffffffffffffffffffffffffffffffff167f8c5be1e5ebec7d5bd14f71427d1e84f3dd0314c0f7b2291e5b200ac8c7c3b92560405160405180910390a4505050565b80600073ffffffffffffffffffffffffffffffffffffffff166005600083815260200190815260200160002060009054906101000a900473ffffffffffffffffffffffffffffffffffffffff1673ffffffffffffffffffffffffffffffffffffffff1614156113d8576040517f08c379a00000000000000000000000000000000000000000000000000000000081526004018080602001828103825260178152602001807f4552433732313a20746f6b656e206e6f742076616c696400000000000000000081525060200191505060405180910390fd5b8373ffffffffffffffffffffffffffffffffffffffff166113f883610dba565b73ffffffffffffffffffffffffffffffffffffffff1614611464576040517f08c379a0000000000000000000000000000000000000000000000000000000008152600401808060200182810382526029815260200180611ac56029913960400191505060405180910390fd5b600073ffffffffffffffffffffffffffffffffffffffff168373ffffffffffffffffffffffffffffffffffffffff1614156114ea576040517f08c379a0000000000000000000000000000000000000000000000000000000008152600401808060200182810382526024815260200180611aee6024913960400191505060405180910390fd5b6114f38261186b565b6114fd848361190c565b61150783836115d2565b818373ffffffffffffffffffffffffffffffffffffffff168573ffffffffffffffffffffffffffffffffffffffff167fddf252ad1be2c89b69c2b068fc378daa952ba7f163c4a11628f55a4df523b3ef60405160405180910390a450505050565b600080600160035401116115c7576040517f08c379a0000000000000000000000000000000000000000000000000000000008152600401808060200182810382526024815260200180611aa16024913960400191505060405180910390fd5b600160035401905090565b600073ffffffffffffffffffffffffffffffffffffffff166005600083815260200190815260200160002060009054906101000a900473ffffffffffffffffffffffffffffffffffffffff1673ffffffffffffffffffffffffffffffffffffffff16146116a7576040517f08c379a000000000000000000000000000000000000000000000000000000000815260040180806020018281038252601c8152602001807f4552433732313a20746f6b656e20616c7265616479206578697374730000000081525060200191505060405180910390fd5b600660008373ffffffffffffffffffffffffffffffffffffffff1673ffffffffffffffffffffffffffffffffffffffff168152602001908152602001600020546001600660008573ffffffffffffffffffffffffffffffffffffffff1673ffffffffffffffffffffffffffffffffffffffff16815260200190815260200160002054011161179d576040517f08c379a00000000000000000000000000000000000000000000000000000000081526004018080602001828103825260108152602001807f4552433732313a206f766572666c6f770000000000000000000000000000000081525060200191505060405180910390fd5b6004819080600181540180825580915050600190039060005260206000200160009091909190915055816005600083815260200190815260200160002060006101000a81548173ffffffffffffffffffffffffffffffffffffffff021916908373ffffffffffffffffffffffffffffffffffffffff160217905550600660008373ffffffffffffffffffffffffffffffffffffffff1673ffffffffffffffffffffffffffffffffffffffff168152602001908152602001600020600081548092919060010191905055505050565b600073ffffffffffffffffffffffffffffffffffffffff166007600083815260200190815260200160002060009054906101000a900473ffffffffffffffffffffffffffffffffffffffff1673ffffffffffffffffffffffffffffffffffffffff1614611909576007600082815260200190815260200160002060006101000a81549073ffffffffffffffffffffffffffffffffffffffff02191690555b50565b8173ffffffffffffffffffffffffffffffffffffffff166005600083815260200190815260200160002060009054906101000a900473ffffffffffffffffffffffffffffffffffffffff1673ffffffffffffffffffffffffffffffffffffffff16146119e0576040517f08c379a00000000000000000000000000000000000000000000000000000000081526004018080602001828103825260118152602001807f4552433732313a206e6f74206f776e657200000000000000000000000000000081525060200191505060405180910390fd5b6001600660008473ffffffffffffffffffffffffffffffffffffffff1673ffffffffffffffffffffffffffffffffffffffff1681526020019081526020016000205403600660008473ffffffffffffffffffffffffffffffffffffffff1673ffffffffffffffffffffffffffffffffffffffff168152602001908152602001600020819055506005600082815260200190815260200160002060006101000a81549073ffffffffffffffffffffffffffffffffffffffff0219169055505056fe4552433732313a206d6178206e756d626572206f6620746f6b656e7320726561636865644552433732313a207472616e73666572206f6620746f6b656e2074686174206973206e6f74206f776e4552433732313a205472616e7366657220746f20746865207a65726f20616464726573734552433732313a20617070726f76616c20746f2063757272656e74206f776e65724552433732313a206e6f74206f776e65722c20617070726f766564206f72206f70657261746f72a2646970667358221220f0ec9ff56330ea1fd4c7b1eb5a835ce9435ede420fb53d3fcbcb28a0f4f99ccb64736f6c63430006000033",
  "source": "// SPDX-License-Identifier: MIT\r\n\r\npragma solidity ^0.6.0;\r\n\r\nimport \"./Interfaces/IERC721.sol\";\r\nimport \"./Interfaces/IERC721Metadata.sol\";\r\nimport \"./Interfaces/IERC721Enumerable.sol\";\r\n\r\n\r\ncontract ERC721 is IERC721, IERC721Metadata, IERC721Enumerable {\r\n    address private owner;\r\n    string private _name;\r\n    string private _symbol;\r\n    uint256 private currentToken; // FIXME Do I need this?\r\n\r\n    uint256[] internal allTokens;\r\n\r\n    // Mapping from owner to list of owned token IDs\r\n    // mapping(address => uint256[]) internal ownerToTokens; // FIXME DO I need this?\r\n    mapping(uint256 => address) private tokenToOwner;\r\n\r\n    // Mapping from token ID to index of the owner tokens list\r\n    // mapping(uint256 => uint256) internal ownerToTokensIndex;\r\n    //Mapping from token id to position in the allTokens array\r\n    // mapping(uint256 => uint256) internal allTokensIndex;\r\n\r\n    mapping(address => uint256) private ownerToTokensCount;\r\n    mapping(uint256 => address) internal tokenToApproval;\r\n    mapping(address => mapping(address => bool)) internal ownerToOperators;\r\n\r\n    //Global variable\r\n    mapping(address => mapping(address => uint256)) internal allowed;\r\n\r\n    event Transfer(\r\n        address indexed _from,\r\n        address indexed _to,\r\n        uint256 indexed _tokenId\r\n    );\r\n\r\n    event Approval(\r\n        address indexed _owner,\r\n        address indexed _approved,\r\n        uint256 indexed _tokenId\r\n    );\r\n\r\n    event ApprovalForAll(\r\n        address indexed _owner,\r\n        address indexed _operator,\r\n        bool _approved\r\n    );\r\n\r\n    modifier validToken(uint256 _tokenId) {\r\n        require(tokenToOwner[_tokenId] != address(0), \"ERC721: token not valid\");\r\n        _;\r\n    }\r\n\r\n    modifier canOperate(uint256 _tokenId) {\r\n        address tokenOwner = tokenToOwner[_tokenId];\r\n        require(\r\n            tokenOwner == msg.sender ||\r\n                ownerToOperators[tokenOwner][msg.sender],\r\n            \"ERC721: not owner or operator\"\r\n        );\r\n        _;\r\n    }\r\n\r\n    modifier canTransfer(uint256 _tokenId) {\r\n        address tokenOwner = tokenToOwner[_tokenId];\r\n        require(\r\n            tokenOwner == msg.sender ||\r\n                tokenToApproval[_tokenId] == msg.sender ||\r\n                ownerToOperators[tokenOwner][msg.sender],\r\n            \"ERC721: not owner, approved or operator\"\r\n        );\r\n        _;\r\n    }\r\n\r\n    constructor(string memory name, string memory symbol) public {\r\n        owner = msg.sender;\r\n        _name = name;\r\n        _symbol = symbol;\r\n        currentToken = 0;\r\n    }\r\n\r\n    // ------ Metadata ------ //\r\n    function name() public override view returns (string memory) {\r\n        return _name;\r\n    }\r\n\r\n    function symbol() public override view returns (string memory) {\r\n        return _symbol;\r\n    }\r\n\r\n    // ------ Enumerable ------ //\r\n    function totalSupply() public override view returns (uint256) {\r\n        return allTokens.length;\r\n    }\r\n\r\n    function tokenByIndex(uint256 _index)\r\n        public\r\n        override\r\n        view\r\n        returns (uint256)\r\n    {\r\n        require(_index < allTokens.length, \"ERC721: invalid index\");\r\n        return allTokens[_index];\r\n    }\r\n\r\n    // ------ ERC-721 ------ //\r\n    function balanceOf(address _owner) public override view returns (uint256) {\r\n        return ownerToTokensCount[_owner];\r\n    }\r\n\r\n    function ownerOf(uint256 _tokenId) public override view returns (address) {\r\n        address _owner = tokenToOwner[_tokenId];\r\n        require(_owner != address(0), \"ERC721: invalid ERC721 token\");\r\n        return _owner;\r\n    }\r\n\r\n    function transferFrom(\r\n        address _from,\r\n        address _to,\r\n        uint256 _tokenId\r\n    ) public override payable canTransfer(_tokenId) validToken(_tokenId) {\r\n        _transfer(_from, _to, _tokenId);\r\n    }\r\n\r\n    function approve(address _approved, uint256 _tokenId)\r\n        public\r\n        override\r\n        payable\r\n        canOperate(_tokenId)\r\n        validToken(_tokenId)\r\n    {\r\n        // allowed[msg.sender][_approved] = _value;\r\n\r\n        address tokenOwnerAddress = tokenToOwner[_tokenId];\r\n        require(\r\n            _approved != tokenOwnerAddress,\r\n            \"ERC721: approval to current owner\"\r\n        );\r\n\r\n        _approve(tokenOwnerAddress, _approved, _tokenId);\r\n    }\r\n\r\n    function setApprovalForAll(address _operator, bool _approved)\r\n        public\r\n        override\r\n    {\r\n        ownerToOperators[msg.sender][_operator] = _approved;\r\n        emit ApprovalForAll(msg.sender, _operator, _approved);\r\n    }\r\n\r\n    function getApproved(uint256 _tokenId)\r\n        public\r\n        override\r\n        view\r\n        validToken(_tokenId)\r\n        returns (address)\r\n    {\r\n        return tokenToApproval[_tokenId];\r\n    }\r\n\r\n    function isApprovedForAll(address _owner, address _operator)\r\n        public\r\n        override\r\n        view\r\n        returns (bool)\r\n    {\r\n        return ownerToOperators[_owner][_operator];\r\n    }\r\n\r\n    // ------ Functions not in the interfaces ------ //\r\n    function mint(address _to) public returns(uint256) {\r\n        require(_to != address(0), \"ERC721: invalid address\");\r\n\r\n        uint256 tokenId = _generateNextToken();\r\n        _addToken(_to, tokenId);\r\n        currentToken++;\r\n\r\n        emit Transfer(msg.sender, _to, tokenId);\r\n\r\n        return tokenId;\r\n    }\r\n\r\n    // ------ Internal functions ------ //\r\n    function _generateNextToken() internal view returns (uint256) {\r\n        require(currentToken + 1 > 0, \"ERC721: max number of tokens reached\");\r\n        return currentToken + 1;\r\n    }\r\n\r\n    function _addToken(address _to, uint256 _tokenId) internal {\r\n        require(\r\n            tokenToOwner[_tokenId] == address(0),\r\n            \"ERC721: token already exists\"\r\n        );\r\n        require(\r\n            ownerToTokensCount[_to] + 1 > ownerToTokensCount[_to],\r\n            \"ERC721: overflow\"\r\n        );\r\n\r\n        allTokens.push(_tokenId);\r\n        tokenToOwner[_tokenId] = _to;\r\n        ownerToTokensCount[_to]++;\r\n    }\r\n\r\n    function _approve(\r\n        address _owner,\r\n        address _to,\r\n        uint256 _tokenId\r\n    ) internal {\r\n        tokenToApproval[_tokenId] = _to;\r\n        emit Approval(_owner, _to, _tokenId);\r\n    }\r\n\r\n    function _transfer(\r\n        address _from,\r\n        address _to,\r\n        uint256 _tokenId\r\n    ) internal validToken(_tokenId) {\r\n        require(\r\n            ownerOf(_tokenId) == _from,\r\n            \"ERC721: transfer of token that is not own\"\r\n        );\r\n        require(_to != address(0), \"ERC721: Transfer to the zero address\");\r\n\r\n        _clearApproval(_tokenId);\r\n\r\n        _removeToken(_from, _tokenId);\r\n        _addToken(_to, _tokenId);\r\n\r\n        emit Transfer(_from, _to, _tokenId);\r\n    }\r\n\r\n    function _removeToken(address _from, uint256 _tokenId) internal {\r\n        require(tokenToOwner[_tokenId] == _from, \"ERC721: not owner\");\r\n        ownerToTokensCount[_from] = ownerToTokensCount[_from] - 1;\r\n        delete tokenToOwner[_tokenId];\r\n    }\r\n\r\n    function _clearApproval(uint256 _tokenId) internal {\r\n        if (tokenToApproval[_tokenId] != address(0)) {\r\n            delete tokenToApproval[_tokenId];\r\n        }\r\n    }\r\n}\r\n",
  "sourcePath": "C:\\ERC-721\\contracts\\ERC721.sol",
  "compiler": {
    "name": "solc",
    "version": "0.6.0+commit.26b70077.Emscripten.clang"
  },
  "schemaVersion": "3.2.0",
  "updatedAt": "2020-06-08T20:20:32.645Z",
  "networkType": "ethereum",
  "devdoc": {
    "methods": {}
  },
  "userdoc": {
    "methods": {}
  }
}