{
  "contractName": "Patient",
  "abi": [
    {
      "anonymous": false,
      "inputs": [
        {
          "indexed": true,
          "internalType": "address",
          "name": "_owner",
          "type": "address"
        },
        {
          "indexed": true,
          "internalType": "address",
          "name": "_approved",
          "type": "address"
        },
        {
          "indexed": true,
          "internalType": "uint256",
          "name": "_tokenId",
          "type": "uint256"
        }
      ],
      "name": "Approval",
      "type": "event"
    },
    {
      "anonymous": false,
      "inputs": [
        {
          "indexed": true,
          "internalType": "address",
          "name": "_owner",
          "type": "address"
        },
        {
          "indexed": true,
          "internalType": "address",
          "name": "_operator",
          "type": "address"
        },
        {
          "indexed": false,
          "internalType": "bool",
          "name": "_approved",
          "type": "bool"
        }
      ],
      "name": "ApprovalForAll",
      "type": "event"
    },
    {
      "anonymous": false,
      "inputs": [
        {
          "indexed": true,
          "internalType": "address",
          "name": "_from",
          "type": "address"
        },
        {
          "indexed": true,
          "internalType": "address",
          "name": "_to",
          "type": "address"
        },
        {
          "indexed": true,
          "internalType": "uint256",
          "name": "_tokenId",
          "type": "uint256"
        }
      ],
      "name": "Transfer",
      "type": "event"
    },
    {
      "inputs": [
        {
          "internalType": "address",
          "name": "_approved",
          "type": "address"
        },
        {
          "internalType": "uint256",
          "name": "_tokenId",
          "type": "uint256"
        }
      ],
      "name": "approve",
      "outputs": [],
      "stateMutability": "payable",
      "type": "function"
    },
    {
      "inputs": [
        {
          "internalType": "address",
          "name": "_owner",
          "type": "address"
        }
      ],
      "name": "balanceOf",
      "outputs": [
        {
          "internalType": "uint256",
          "name": "",
          "type": "uint256"
        }
      ],
      "stateMutability": "view",
      "type": "function"
    },
    {
      "inputs": [
        {
          "internalType": "uint256",
          "name": "_tokenId",
          "type": "uint256"
        }
      ],
      "name": "getApproved",
      "outputs": [
        {
          "internalType": "address",
          "name": "",
          "type": "address"
        }
      ],
      "stateMutability": "view",
      "type": "function"
    },
    {
      "inputs": [
        {
          "internalType": "address",
          "name": "_owner",
          "type": "address"
        },
        {
          "internalType": "address",
          "name": "_operator",
          "type": "address"
        }
      ],
      "name": "isApprovedForAll",
      "outputs": [
        {
          "internalType": "bool",
          "name": "",
          "type": "bool"
        }
      ],
      "stateMutability": "view",
      "type": "function"
    },
    {
      "inputs": [
        {
          "internalType": "address",
          "name": "_to",
          "type": "address"
        }
      ],
      "name": "mint",
      "outputs": [
        {
          "internalType": "uint256",
          "name": "",
          "type": "uint256"
        }
      ],
      "stateMutability": "nonpayable",
      "type": "function"
    },
    {
      "inputs": [],
      "name": "name",
      "outputs": [
        {
          "internalType": "string",
          "name": "",
          "type": "string"
        }
      ],
      "stateMutability": "view",
      "type": "function"
    },
    {
      "inputs": [
        {
          "internalType": "uint256",
          "name": "_tokenId",
          "type": "uint256"
        }
      ],
      "name": "ownerOf",
      "outputs": [
        {
          "internalType": "address",
          "name": "",
          "type": "address"
        }
      ],
      "stateMutability": "view",
      "type": "function"
    },
    {
      "inputs": [
        {
          "internalType": "address",
          "name": "_operator",
          "type": "address"
        },
        {
          "internalType": "bool",
          "name": "_approved",
          "type": "bool"
        }
      ],
      "name": "setApprovalForAll",
      "outputs": [],
      "stateMutability": "nonpayable",
      "type": "function"
    },
    {
      "inputs": [],
      "name": "symbol",
      "outputs": [
        {
          "internalType": "string",
          "name": "",
          "type": "string"
        }
      ],
      "stateMutability": "view",
      "type": "function"
    },
    {
      "inputs": [
        {
          "internalType": "uint256",
          "name": "_index",
          "type": "uint256"
        }
      ],
      "name": "tokenByIndex",
      "outputs": [
        {
          "internalType": "uint256",
          "name": "",
          "type": "uint256"
        }
      ],
      "stateMutability": "view",
      "type": "function"
    },
    {
      "inputs": [],
      "name": "totalSupply",
      "outputs": [
        {
          "internalType": "uint256",
          "name": "",
          "type": "uint256"
        }
      ],
      "stateMutability": "view",
      "type": "function"
    },
    {
      "inputs": [
        {
          "internalType": "address",
          "name": "_from",
          "type": "address"
        },
        {
          "internalType": "address",
          "name": "_to",
          "type": "address"
        },
        {
          "internalType": "uint256",
          "name": "_tokenId",
          "type": "uint256"
        }
      ],
      "name": "transferFrom",
      "outputs": [],
      "stateMutability": "payable",
      "type": "function"
    },
    {
      "inputs": [],
      "name": "totalPatients",
      "outputs": [
        {
          "internalType": "uint256",
          "name": "",
          "type": "uint256"
        }
      ],
      "stateMutability": "view",
      "type": "function"
    },
    {
      "inputs": [
        {
          "internalType": "uint256",
          "name": "_patientId",
          "type": "uint256"
        }
      ],
      "name": "patientHolder",
      "outputs": [
        {
          "internalType": "address",
          "name": "",
          "type": "address"
        }
      ],
      "stateMutability": "view",
      "type": "function"
    },
    {
      "inputs": [
        {
          "internalType": "uint256",
          "name": "_patientId",
          "type": "uint256"
        }
      ],
      "name": "getPatientName",
      "outputs": [
        {
          "internalType": "string",
          "name": "",
          "type": "string"
        }
      ],
      "stateMutability": "view",
      "type": "function"
    },
    {
      "inputs": [
        {
          "internalType": "uint256",
          "name": "_patientId",
          "type": "uint256"
        }
      ],
      "name": "getPatientDateBirth",
      "outputs": [
        {
          "internalType": "uint64",
          "name": "",
          "type": "uint64"
        }
      ],
      "stateMutability": "view",
      "type": "function"
    },
    {
      "inputs": [
        {
          "internalType": "uint256",
          "name": "_patientId",
          "type": "uint256"
        }
      ],
      "name": "getPatientStatus",
      "outputs": [
        {
          "internalType": "enum Patient.Status",
          "name": "",
          "type": "uint8"
        }
      ],
      "stateMutability": "view",
      "type": "function"
    },
    {
      "inputs": [
        {
          "internalType": "uint256",
          "name": "_patientId",
          "type": "uint256"
        }
      ],
      "name": "getPatientEmergencyHospital",
      "outputs": [
        {
          "internalType": "address",
          "name": "",
          "type": "address"
        }
      ],
      "stateMutability": "view",
      "type": "function"
    },
    {
      "inputs": [
        {
          "internalType": "string",
          "name": "_name",
          "type": "string"
        },
        {
          "internalType": "uint64",
          "name": "_dateBirth",
          "type": "uint64"
        },
        {
          "internalType": "address",
          "name": "_emergencyHospital",
          "type": "address"
        }
      ],
      "name": "addPatient",
      "outputs": [],
      "stateMutability": "nonpayable",
      "type": "function"
    },
    {
      "inputs": [
        {
          "internalType": "address",
          "name": "_to",
          "type": "address"
        },
        {
          "internalType": "uint256",
          "name": "_patientId",
          "type": "uint256"
        }
      ],
      "name": "transferPatient",
      "outputs": [],
      "stateMutability": "nonpayable",
      "type": "function"
    },
    {
      "inputs": [
        {
          "internalType": "uint256",
          "name": "_patientId",
          "type": "uint256"
        }
      ],
      "name": "movePatientToCritical",
      "outputs": [],
      "stateMutability": "nonpayable",
      "type": "function"
    }
  ],
  "bytecode": "0x60806040526040518060400160405280600781526020017f50617469656e74000000000000000000000000000000000000000000000000008152506040518060400160405280600381526020017f504e540000000000000000000000000000000000000000000000000000000000815250336000806101000a81548173ffffffffffffffffffffffffffffffffffffffff021916908373ffffffffffffffffffffffffffffffffffffffff1602179055508160019080519060200190620000c8929190620000f2565b508060029080519060200190620000e1929190620000f2565b5060006003819055505050620001a1565b828054600181600116156101000203166002900490600052602060002090601f016020900481019282601f106200013557805160ff191683800117855562000166565b8280016001018555821562000166579182015b828111156200016557825182559160200191906001019062000148565b5b50905062000175919062000179565b5090565b6200019e91905b808211156200019a57600081600090555060010162000180565b5090565b90565b61285480620001b16000396000f3fe60806040526004361061012a5760003560e01c80636352211e116100ab57806398f78e491161006f57806398f78e49146107ef578063a22cb46514610852578063b55e3167146108af578063d142c3d3146108ea578063deb5ef091461099e578063e985e9c5146109c95761012a565b80636352211e146105bf5780636a6278421461063a57806370a082311461069f5780637d757eb81461070457806395d89b411461075f5761012a565b806323b872dd116100f257806323b872dd1461032e57806333ab806b1461039c57806338816d19146104985780634f6ccce7146104f557806353736841146105445761012a565b8063043cc1991461012f57806306fdde03146101aa578063081812fc1461023a578063095ea7b3146102b557806318160ddd14610303575b600080fd5b34801561013b57600080fd5b506101686004803603602081101561015257600080fd5b8101908080359060200190929190505050610a52565b604051808273ffffffffffffffffffffffffffffffffffffffff1673ffffffffffffffffffffffffffffffffffffffff16815260200191505060405180910390f35b3480156101b657600080fd5b506101bf610a64565b6040518080602001828103825283818151815260200191508051906020019080838360005b838110156101ff5780820151818401526020810190506101e4565b50505050905090810190601f16801561022c5780820380516001836020036101000a031916815260200191505b509250505060405180910390f35b34801561024657600080fd5b506102736004803603602081101561025d57600080fd5b8101908080359060200190929190505050610b06565b604051808273ffffffffffffffffffffffffffffffffffffffff1673ffffffffffffffffffffffffffffffffffffffff16815260200191505060405180910390f35b610301600480360360408110156102cb57600080fd5b81019080803573ffffffffffffffffffffffffffffffffffffffff16906020019092919080359060200190929190505050610c1b565b005b34801561030f57600080fd5b50610318610f2d565b6040518082815260200191505060405180910390f35b61039a6004803603606081101561034457600080fd5b81019080803573ffffffffffffffffffffffffffffffffffffffff169060200190929190803573ffffffffffffffffffffffffffffffffffffffff16906020019092919080359060200190929190505050610f3a565b005b3480156103a857600080fd5b50610496600480360360608110156103bf57600080fd5b81019080803590602001906401000000008111156103dc57600080fd5b8201836020820111156103ee57600080fd5b8035906020019184600183028401116401000000008311171561041057600080fd5b91908080601f016020809104026020016040519081016040528093929190818152602001838380828437600081840152601f19601f820116905080830192505050505050509192919290803567ffffffffffffffff169060200190929190803573ffffffffffffffffffffffffffffffffffffffff1690602001909291905050506111db565b005b3480156104a457600080fd5b506104d1600480360360208110156104bb57600080fd5b810190808035906020019092919050505061130d565b604051808260018111156104e157fe5b60ff16815260200191505060405180910390f35b34801561050157600080fd5b5061052e6004803603602081101561051857600080fd5b81019080803590602001909291905050506113e5565b6040518082815260200191505060405180910390f35b34801561055057600080fd5b5061057d6004803603602081101561056757600080fd5b8101908080359060200190929190505050611480565b604051808273ffffffffffffffffffffffffffffffffffffffff1673ffffffffffffffffffffffffffffffffffffffff16815260200191505060405180910390f35b3480156105cb57600080fd5b506105f8600480360360208110156105e257600080fd5b810190808035906020019092919050505061156b565b604051808273ffffffffffffffffffffffffffffffffffffffff1673ffffffffffffffffffffffffffffffffffffffff16815260200191505060405180910390f35b34801561064657600080fd5b506106896004803603602081101561065d57600080fd5b81019080803573ffffffffffffffffffffffffffffffffffffffff169060200190929190505050611650565b6040518082815260200191505060405180910390f35b3480156106ab57600080fd5b506106ee600480360360208110156106c257600080fd5b81019080803573ffffffffffffffffffffffffffffffffffffffff169060200190929190505050611780565b6040518082815260200191505060405180910390f35b34801561071057600080fd5b5061075d6004803603604081101561072757600080fd5b81019080803573ffffffffffffffffffffffffffffffffffffffff169060200190929190803590602001909291905050506117c9565b005b34801561076b57600080fd5b506107746117d8565b6040518080602001828103825283818151815260200191508051906020019080838360005b838110156107b4578082015181840152602081019050610799565b50505050905090810190601f1680156107e15780820380516001836020036101000a031916815260200191505b509250505060405180910390f35b3480156107fb57600080fd5b506108286004803603602081101561081257600080fd5b810190808035906020019092919050505061187a565b604051808267ffffffffffffffff1667ffffffffffffffff16815260200191505060405180910390f35b34801561085e57600080fd5b506108ad6004803603604081101561087557600080fd5b81019080803573ffffffffffffffffffffffffffffffffffffffff169060200190929190803515159060200190929190505050611959565b005b3480156108bb57600080fd5b506108e8600480360360208110156108d257600080fd5b8101908080359060200190929190505050611a5a565b005b3480156108f657600080fd5b506109236004803603602081101561090d57600080fd5b8101908080359060200190929190505050611c2d565b6040518080602001828103825283818151815260200191508051906020019080838360005b83811015610963578082015181840152602081019050610948565b50505050905090810190601f1680156109905780820380516001836020036101000a031916815260200191505b509250505060405180910390f35b3480156109aa57600080fd5b506109b3611d90565b6040518082815260200191505060405180910390f35b3480156109d557600080fd5b50610a38600480360360408110156109ec57600080fd5b81019080803573ffffffffffffffffffffffffffffffffffffffff169060200190929190803573ffffffffffffffffffffffffffffffffffffffff169060200190929190505050611d9f565b604051808215151515815260200191505060405180910390f35b6000610a5d8261156b565b9050919050565b606060018054600181600116156101000203166002900480601f016020809104026020016040519081016040528092919081815260200182805460018160011615610100020316600290048015610afc5780601f10610ad157610100808354040283529160200191610afc565b820191906000526020600020905b815481529060010190602001808311610adf57829003601f168201915b5050505050905090565b600081600073ffffffffffffffffffffffffffffffffffffffff166005600083815260200190815260200160002060009054906101000a900473ffffffffffffffffffffffffffffffffffffffff1673ffffffffffffffffffffffffffffffffffffffff161415610bdf576040517f08c379a00000000000000000000000000000000000000000000000000000000081526004018080602001828103825260178152602001807f4552433732313a20746f6b656e206e6f742076616c696400000000000000000081525060200191505060405180910390fd5b6007600084815260200190815260200160002060009054906101000a900473ffffffffffffffffffffffffffffffffffffffff16915050919050565b8060006005600083815260200190815260200160002060009054906101000a900473ffffffffffffffffffffffffffffffffffffffff1690503373ffffffffffffffffffffffffffffffffffffffff168173ffffffffffffffffffffffffffffffffffffffff161480610d145750600860008273ffffffffffffffffffffffffffffffffffffffff1673ffffffffffffffffffffffffffffffffffffffff16815260200190815260200160002060003373ffffffffffffffffffffffffffffffffffffffff1673ffffffffffffffffffffffffffffffffffffffff16815260200190815260200160002060009054906101000a900460ff165b610d86576040517f08c379a000000000000000000000000000000000000000000000000000000000815260040180806020018281038252601d8152602001807f4552433732313a206e6f74206f776e6572206f72206f70657261746f7200000081525060200191505060405180910390fd5b82600073ffffffffffffffffffffffffffffffffffffffff166005600083815260200190815260200160002060009054906101000a900473ffffffffffffffffffffffffffffffffffffffff1673ffffffffffffffffffffffffffffffffffffffff161415610e5d576040517f08c379a00000000000000000000000000000000000000000000000000000000081526004018080602001828103825260178152602001807f4552433732313a20746f6b656e206e6f742076616c696400000000000000000081525060200191505060405180910390fd5b60006005600086815260200190815260200160002060009054906101000a900473ffffffffffffffffffffffffffffffffffffffff1690508073ffffffffffffffffffffffffffffffffffffffff168673ffffffffffffffffffffffffffffffffffffffff161415610f1a576040517f08c379a00000000000000000000000000000000000000000000000000000000081526004018080602001828103825260218152602001806127d76021913960400191505060405180910390fd5b610f25818787611e33565b505050505050565b6000600480549050905090565b8060006005600083815260200190815260200160002060009054906101000a900473ffffffffffffffffffffffffffffffffffffffff1690503373ffffffffffffffffffffffffffffffffffffffff168173ffffffffffffffffffffffffffffffffffffffff16148061100b57503373ffffffffffffffffffffffffffffffffffffffff166007600084815260200190815260200160002060009054906101000a900473ffffffffffffffffffffffffffffffffffffffff1673ffffffffffffffffffffffffffffffffffffffff16145b8061109c5750600860008273ffffffffffffffffffffffffffffffffffffffff1673ffffffffffffffffffffffffffffffffffffffff16815260200190815260200160002060003373ffffffffffffffffffffffffffffffffffffffff1673ffffffffffffffffffffffffffffffffffffffff16815260200190815260200160002060009054906101000a900460ff165b6110f1576040517f08c379a00000000000000000000000000000000000000000000000000000000081526004018080602001828103825260278152602001806127f86027913960400191505060405180910390fd5b82600073ffffffffffffffffffffffffffffffffffffffff166005600083815260200190815260200160002060009054906101000a900473ffffffffffffffffffffffffffffffffffffffff1673ffffffffffffffffffffffffffffffffffffffff1614156111c8576040517f08c379a00000000000000000000000000000000000000000000000000000000081526004018080602001828103825260178152602001807f4552433732313a20746f6b656e206e6f742076616c696400000000000000000081525060200191505060405180910390fd5b6111d3868686611ee5565b505050505050565b60006111e633611650565b905060405180608001604052808581526020018467ffffffffffffffff1681526020016000600181111561121657fe5b81526020018373ffffffffffffffffffffffffffffffffffffffff16815250600a60008381526020019081526020016000206000820151816000019080519060200190611264929190612694565b5060208201518160010160006101000a81548167ffffffffffffffff021916908367ffffffffffffffff16021790555060408201518160010160086101000a81548160ff021916908360018111156112b857fe5b021790555060608201518160010160096101000a81548173ffffffffffffffffffffffffffffffffffffffff021916908373ffffffffffffffffffffffffffffffffffffffff16021790555090505050505050565b60008161131981610a52565b73ffffffffffffffffffffffffffffffffffffffff163373ffffffffffffffffffffffffffffffffffffffff16146113b9576040517f08c379a000000000000000000000000000000000000000000000000000000000815260040180806020018281038252601c8152602001807f50617469656e743a206e6f7420686f73706974616c20686f6c6465720000000081525060200191505060405180910390fd5b600a600084815260200190815260200160002060010160089054906101000a900460ff16915050919050565b60006004805490508210611461576040517f08c379a00000000000000000000000000000000000000000000000000000000081526004018080602001828103825260158152602001807f4552433732313a20696e76616c696420696e646578000000000000000000000081525060200191505060405180910390fd5b6004828154811061146e57fe5b90600052602060002001549050919050565b60008161148c81610a52565b73ffffffffffffffffffffffffffffffffffffffff163373ffffffffffffffffffffffffffffffffffffffff161461152c576040517f08c379a000000000000000000000000000000000000000000000000000000000815260040180806020018281038252601c8152602001807f50617469656e743a206e6f7420686f73706974616c20686f6c6465720000000081525060200191505060405180910390fd5b600a600084815260200190815260200160002060010160099054906101000a900473ffffffffffffffffffffffffffffffffffffffff16915050919050565b6000806005600084815260200190815260200160002060009054906101000a900473ffffffffffffffffffffffffffffffffffffffff169050600073ffffffffffffffffffffffffffffffffffffffff168173ffffffffffffffffffffffffffffffffffffffff161415611647576040517f08c379a000000000000000000000000000000000000000000000000000000000815260040180806020018281038252601c8152602001807f4552433732313a20696e76616c69642045524337323120746f6b656e0000000081525060200191505060405180910390fd5b80915050919050565b60008073ffffffffffffffffffffffffffffffffffffffff168273ffffffffffffffffffffffffffffffffffffffff1614156116f4576040517f08c379a00000000000000000000000000000000000000000000000000000000081526004018080602001828103825260178152602001807f4552433732313a20696e76616c6964206164647265737300000000000000000081525060200191505060405180910390fd5b60006116fe61214c565b905061170a83826121b6565b600360008154809291906001019190505550808373ffffffffffffffffffffffffffffffffffffffff163373ffffffffffffffffffffffffffffffffffffffff167fddf252ad1be2c89b69c2b068fc378daa952ba7f163c4a11628f55a4df523b3ef60405160405180910390a480915050919050565b6000600660008373ffffffffffffffffffffffffffffffffffffffff1673ffffffffffffffffffffffffffffffffffffffff168152602001908152602001600020549050919050565b6117d433838361244f565b5050565b606060028054600181600116156101000203166002900480601f0160208091040260200160405190810160405280929190818152602001828054600181600116156101000203166002900480156118705780601f1061184557610100808354040283529160200191611870565b820191906000526020600020905b81548152906001019060200180831161185357829003601f168201915b5050505050905090565b60008161188681610a52565b73ffffffffffffffffffffffffffffffffffffffff163373ffffffffffffffffffffffffffffffffffffffff1614611926576040517f08c379a000000000000000000000000000000000000000000000000000000000815260040180806020018281038252601c8152602001807f50617469656e743a206e6f7420686f73706974616c20686f6c6465720000000081525060200191505060405180910390fd5b600a600084815260200190815260200160002060010160009054906101000a900467ffffffffffffffff16915050919050565b80600860003373ffffffffffffffffffffffffffffffffffffffff1673ffffffffffffffffffffffffffffffffffffffff16815260200190815260200160002060008473ffffffffffffffffffffffffffffffffffffffff1673ffffffffffffffffffffffffffffffffffffffff16815260200190815260200160002060006101000a81548160ff0219169083151502179055508173ffffffffffffffffffffffffffffffffffffffff163373ffffffffffffffffffffffffffffffffffffffff167f17307eab39ab6107e8899845ad3d59bd9653f200f220920489ca2b5937696c3183604051808215151515815260200191505060405180910390a35050565b80611a6481610a52565b73ffffffffffffffffffffffffffffffffffffffff163373ffffffffffffffffffffffffffffffffffffffff1614611b04576040517f08c379a000000000000000000000000000000000000000000000000000000000815260040180806020018281038252601c8152602001807f50617469656e743a206e6f7420686f73706974616c20686f6c6465720000000081525060200191505060405180910390fd5b600180811115611b1057fe5b600a600084815260200190815260200160002060010160089054906101000a900460ff166001811115611b3f57fe5b1415611b96576040517f08c379a000000000000000000000000000000000000000000000000000000000815260040180806020018281038252602c81526020018061275e602c913960400191505060405180910390fd5b6000611ba183610a52565b90506000611bae84611480565b90508073ffffffffffffffffffffffffffffffffffffffff168273ffffffffffffffffffffffffffffffffffffffff1614611c27576001600a600086815260200190815260200160002060010160086101000a81548160ff02191690836001811115611c1657fe5b0217905550611c2682828661244f565b5b50505050565b606081611c3981610a52565b73ffffffffffffffffffffffffffffffffffffffff163373ffffffffffffffffffffffffffffffffffffffff1614611cd9576040517f08c379a000000000000000000000000000000000000000000000000000000000815260040180806020018281038252601c8152602001807f50617469656e743a206e6f7420686f73706974616c20686f6c6465720000000081525060200191505060405180910390fd5b600a60008481526020019081526020016000206000018054600181600116156101000203166002900480601f016020809104026020016040519081016040528092919081815260200182805460018160011615610100020316600290048015611d835780601f10611d5857610100808354040283529160200191611d83565b820191906000526020600020905b815481529060010190602001808311611d6657829003601f168201915b5050505050915050919050565b6000611d9a610f2d565b905090565b6000600860008473ffffffffffffffffffffffffffffffffffffffff1673ffffffffffffffffffffffffffffffffffffffff16815260200190815260200160002060008373ffffffffffffffffffffffffffffffffffffffff1673ffffffffffffffffffffffffffffffffffffffff16815260200190815260200160002060009054906101000a900460ff16905092915050565b816007600083815260200190815260200160002060006101000a81548173ffffffffffffffffffffffffffffffffffffffff021916908373ffffffffffffffffffffffffffffffffffffffff160217905550808273ffffffffffffffffffffffffffffffffffffffff168473ffffffffffffffffffffffffffffffffffffffff167f8c5be1e5ebec7d5bd14f71427d1e84f3dd0314c0f7b2291e5b200ac8c7c3b92560405160405180910390a4505050565b80600073ffffffffffffffffffffffffffffffffffffffff166005600083815260200190815260200160002060009054906101000a900473ffffffffffffffffffffffffffffffffffffffff1673ffffffffffffffffffffffffffffffffffffffff161415611fbc576040517f08c379a00000000000000000000000000000000000000000000000000000000081526004018080602001828103825260178152602001807f4552433732313a20746f6b656e206e6f742076616c696400000000000000000081525060200191505060405180910390fd5b8373ffffffffffffffffffffffffffffffffffffffff16611fdc8361156b565b73ffffffffffffffffffffffffffffffffffffffff1614612048576040517f08c379a000000000000000000000000000000000000000000000000000000000815260040180806020018281038252602981526020018061278a6029913960400191505060405180910390fd5b600073ffffffffffffffffffffffffffffffffffffffff168373ffffffffffffffffffffffffffffffffffffffff1614156120ce576040517f08c379a00000000000000000000000000000000000000000000000000000000081526004018080602001828103825260248152602001806127b36024913960400191505060405180910390fd5b6120d78261245f565b6120e18483612500565b6120eb83836121b6565b818373ffffffffffffffffffffffffffffffffffffffff168573ffffffffffffffffffffffffffffffffffffffff167fddf252ad1be2c89b69c2b068fc378daa952ba7f163c4a11628f55a4df523b3ef60405160405180910390a450505050565b600080600160035401116121ab576040517f08c379a000000000000000000000000000000000000000000000000000000000815260040180806020018281038252602481526020018061273a6024913960400191505060405180910390fd5b600160035401905090565b600073ffffffffffffffffffffffffffffffffffffffff166005600083815260200190815260200160002060009054906101000a900473ffffffffffffffffffffffffffffffffffffffff1673ffffffffffffffffffffffffffffffffffffffff161461228b576040517f08c379a000000000000000000000000000000000000000000000000000000000815260040180806020018281038252601c8152602001807f4552433732313a20746f6b656e20616c7265616479206578697374730000000081525060200191505060405180910390fd5b600660008373ffffffffffffffffffffffffffffffffffffffff1673ffffffffffffffffffffffffffffffffffffffff168152602001908152602001600020546001600660008573ffffffffffffffffffffffffffffffffffffffff1673ffffffffffffffffffffffffffffffffffffffff168152602001908152602001600020540111612381576040517f08c379a00000000000000000000000000000000000000000000000000000000081526004018080602001828103825260108152602001807f4552433732313a206f766572666c6f770000000000000000000000000000000081525060200191505060405180910390fd5b6004819080600181540180825580915050600190039060005260206000200160009091909190915055816005600083815260200190815260200160002060006101000a81548173ffffffffffffffffffffffffffffffffffffffff021916908373ffffffffffffffffffffffffffffffffffffffff160217905550600660008373ffffffffffffffffffffffffffffffffffffffff1673ffffffffffffffffffffffffffffffffffffffff168152602001908152602001600020600081548092919060010191905055505050565b61245a838383610f3a565b505050565b600073ffffffffffffffffffffffffffffffffffffffff166007600083815260200190815260200160002060009054906101000a900473ffffffffffffffffffffffffffffffffffffffff1673ffffffffffffffffffffffffffffffffffffffff16146124fd576007600082815260200190815260200160002060006101000a81549073ffffffffffffffffffffffffffffffffffffffff02191690555b50565b8173ffffffffffffffffffffffffffffffffffffffff166005600083815260200190815260200160002060009054906101000a900473ffffffffffffffffffffffffffffffffffffffff1673ffffffffffffffffffffffffffffffffffffffff16146125d4576040517f08c379a00000000000000000000000000000000000000000000000000000000081526004018080602001828103825260118152602001807f4552433732313a206e6f74206f776e657200000000000000000000000000000081525060200191505060405180910390fd5b6001600660008473ffffffffffffffffffffffffffffffffffffffff1673ffffffffffffffffffffffffffffffffffffffff1681526020019081526020016000205403600660008473ffffffffffffffffffffffffffffffffffffffff1673ffffffffffffffffffffffffffffffffffffffff168152602001908152602001600020819055506005600082815260200190815260200160002060006101000a81549073ffffffffffffffffffffffffffffffffffffffff02191690555050565b828054600181600116156101000203166002900490600052602060002090601f016020900481019282601f106126d557805160ff1916838001178555612703565b82800160010185558215612703579182015b828111156127025782518255916020019190600101906126e7565b5b5090506127109190612714565b5090565b61273691905b8082111561273257600081600090555060010161271a565b5090565b9056fe4552433732313a206d6178206e756d626572206f6620746f6b656e73207265616368656450617469656e743a2050617469656e7420616c72656164792068617320637269746963616c207374617475734552433732313a207472616e73666572206f6620746f6b656e2074686174206973206e6f74206f776e4552433732313a205472616e7366657220746f20746865207a65726f20616464726573734552433732313a20617070726f76616c20746f2063757272656e74206f776e65724552433732313a206e6f74206f776e65722c20617070726f766564206f72206f70657261746f72a2646970667358221220c74c42982f2113a3f071388e122149b18557ca735cdd5fc14bbb76de19bef1c164736f6c63430006000033",
  "source": "// SPDX-License-Identifier: MIT\r\n\r\npragma solidity ^0.6.0;\r\n\r\nimport \"./ERC721.sol\";\r\n\r\n\r\ncontract Patient is ERC721(\"Patient\", \"PNT\") {\r\n    enum Status {Fair, Critical}\r\n\r\n    struct PatientInfo {\r\n        string name;\r\n        uint64 dateBirth;\r\n        Status status;\r\n        address emergencyHospital;\r\n    }\r\n\r\n    mapping(uint256 => PatientInfo) patients;\r\n\r\n    modifier onlyHolder(uint256 _patientId) {\r\n        require(\r\n            msg.sender == patientHolder(_patientId),\r\n            \"Patient: not hospital holder\"\r\n        );\r\n        _;\r\n    }\r\n\r\n    function totalPatients() public view returns (uint256) {\r\n        return super.totalSupply();\r\n    }\r\n\r\n    function patientHolder(uint256 _patientId) public view returns (address) {\r\n        return super.ownerOf(_patientId);\r\n    }\r\n\r\n    function getPatientName(uint256 _patientId)\r\n        public\r\n        view\r\n        onlyHolder(_patientId)\r\n        returns (string memory)\r\n    {\r\n        return patients[_patientId].name;\r\n    }\r\n\r\n    function getPatientDateBirth(uint256 _patientId)\r\n        public\r\n        view\r\n        onlyHolder(_patientId)\r\n        returns (uint64)\r\n    {\r\n        return patients[_patientId].dateBirth;\r\n    }\r\n\r\n    function getPatientStatus(uint256 _patientId)\r\n        public\r\n        view\r\n        onlyHolder(_patientId)\r\n        returns (Status)\r\n    {\r\n        return patients[_patientId].status;\r\n    }\r\n\r\n    function getPatientEmergencyHospital(uint256 _patientId)\r\n        public\r\n        view\r\n        onlyHolder(_patientId)\r\n        returns (address)\r\n    {\r\n        return patients[_patientId].emergencyHospital;\r\n    }\r\n\r\n    function addPatient(\r\n        string memory _name,\r\n        uint64 _dateBirth,\r\n        address _emergencyHospital\r\n    ) public {\r\n        uint256 tokenId = mint(msg.sender);\r\n\r\n        patients[tokenId] = PatientInfo(\r\n            _name,\r\n            _dateBirth,\r\n            Status.Fair,\r\n            _emergencyHospital\r\n        );\r\n    }\r\n\r\n    function transferPatient(address _to, uint256 _patientId) public {\r\n        _transferPatientFrom(msg.sender, _to, _patientId);\r\n    }\r\n\r\n    function movePatientToCritical(uint256 _patientId)\r\n        public\r\n        onlyHolder(_patientId)\r\n    {\r\n        require(\r\n            patients[_patientId].status != Status.Critical,\r\n            \"Patient: Patient already has critical status\"\r\n        );\r\n        address holder = patientHolder(_patientId);\r\n        address emergencyAddress = getPatientEmergencyHospital(_patientId);\r\n\r\n        if (holder != emergencyAddress) {\r\n            patients[_patientId].status = Status.Critical;\r\n            _transferPatientFrom(holder, emergencyAddress, _patientId);\r\n        }\r\n    }\r\n\r\n    function _transferPatientFrom(\r\n        address _from,\r\n        address _to,\r\n        uint256 _patientId\r\n    ) internal {\r\n        super.transferFrom(_from, _to, _patientId);\r\n    }\r\n}\r\n",
  "sourcePath": "C:\\ERC-721\\contracts\\Patient.sol",
  "compiler": {
    "name": "solc",
    "version": "0.6.0+commit.26b70077.Emscripten.clang"
  },
  "schemaVersion": "3.2.0",
  "updatedAt": "2020-06-08T20:16:05.127Z",
  "devdoc": {
    "methods": {}
  },
  "userdoc": {
    "methods": {}
  }
}